{
  "_format": "hh-sol-artifact-1",
  "contractName": "CopyrightRegistry",
  "sourceName": "contracts/CopyrightRegistry.sol",
  "abi": [
    {
      "anonymous": false,
      "inputs": [
        {
          "indexed": true,
          "internalType": "uint256",
          "name": "copyrightId",
          "type": "uint256"
        },
        {
          "indexed": false,
          "internalType": "string",
          "name": "newTitle",
          "type": "string"
        },
        {
          "indexed": false,
          "internalType": "string",
          "name": "newDescription",
          "type": "string"
        }
      ],
      "name": "CopyrightMetadataUpdated",
      "type": "event"
    },
    {
      "anonymous": false,
      "inputs": [
        {
          "indexed": true,
          "internalType": "uint256",
          "name": "copyrightId",
          "type": "uint256"
        },
        {
          "indexed": true,
          "internalType": "address",
          "name": "artist",
          "type": "address"
        },
        {
          "indexed": false,
          "internalType": "string",
          "name": "title",
          "type": "string"
        },
        {
          "indexed": false,
          "internalType": "string",
          "name": "fileHash",
          "type": "string"
        },
        {
          "indexed": false,
          "internalType": "uint256",
          "name": "timestamp",
          "type": "uint256"
        }
      ],
      "name": "CopyrightRegistered",
      "type": "event"
    },
    {
      "inputs": [
        {
          "internalType": "address",
          "name": "",
          "type": "address"
        },
        {
          "internalType": "uint256",
          "name": "",
          "type": "uint256"
        }
      ],
      "name": "artistCopyrights",
      "outputs": [
        {
          "internalType": "uint256",
          "name": "",
          "type": "uint256"
        }
      ],
      "stateMutability": "view",
      "type": "function"
    },
    {
      "inputs": [
        {
          "internalType": "uint256",
          "name": "",
          "type": "uint256"
        }
      ],
      "name": "copyrights",
      "outputs": [
        {
          "internalType": "uint256",
          "name": "id",
          "type": "uint256"
        },
        {
          "internalType": "address",
          "name": "artist",
          "type": "address"
        },
        {
          "internalType": "string",
          "name": "title",
          "type": "string"
        },
        {
          "internalType": "string",
          "name": "description",
          "type": "string"
        },
        {
          "internalType": "string",
          "name": "fileHash",
          "type": "string"
        },
        {
          "internalType": "string",
          "name": "ipfsHash",
          "type": "string"
        },
        {
          "internalType": "string",
          "name": "licenseType",
          "type": "string"
        },
        {
          "internalType": "uint256",
          "name": "timestamp",
          "type": "uint256"
        },
        {
          "internalType": "bool",
          "name": "exists",
          "type": "bool"
        }
      ],
      "stateMutability": "view",
      "type": "function"
    },
    {
      "inputs": [
        {
          "internalType": "string",
          "name": "",
          "type": "string"
        }
      ],
      "name": "fileHashToCopyright",
      "outputs": [
        {
          "internalType": "uint256",
          "name": "",
          "type": "uint256"
        }
      ],
      "stateMutability": "view",
      "type": "function"
    },
    {
      "inputs": [
        {
          "internalType": "address",
          "name": "_artist",
          "type": "address"
        }
      ],
      "name": "getArtistCopyrightCount",
      "outputs": [
        {
          "internalType": "uint256",
          "name": "",
          "type": "uint256"
        }
      ],
      "stateMutability": "view",
      "type": "function"
    },
    {
      "inputs": [
        {
          "internalType": "address",
          "name": "_artist",
          "type": "address"
        }
      ],
      "name": "getArtistCopyrights",
      "outputs": [
        {
          "internalType": "uint256[]",
          "name": "",
          "type": "uint256[]"
        }
      ],
      "stateMutability": "view",
      "type": "function"
    },
    {
      "inputs": [
        {
          "internalType": "uint256",
          "name": "_copyrightId",
          "type": "uint256"
        }
      ],
      "name": "getCopyright",
      "outputs": [
        {
          "components": [
            {
              "internalType": "uint256",
              "name": "id",
              "type": "uint256"
            },
            {
              "internalType": "address",
              "name": "artist",
              "type": "address"
            },
            {
              "internalType": "string",
              "name": "title",
              "type": "string"
            },
            {
              "internalType": "string",
              "name": "description",
              "type": "string"
            },
            {
              "internalType": "string",
              "name": "fileHash",
              "type": "string"
            },
            {
              "internalType": "string",
              "name": "ipfsHash",
              "type": "string"
            },
            {
              "internalType": "string",
              "name": "licenseType",
              "type": "string"
            },
            {
              "internalType": "uint256",
              "name": "timestamp",
              "type": "uint256"
            },
            {
              "internalType": "bool",
              "name": "exists",
              "type": "bool"
            }
          ],
          "internalType": "struct CopyrightRegistry.Copyright",
          "name": "",
          "type": "tuple"
        }
      ],
      "stateMutability": "view",
      "type": "function"
    },
    {
      "inputs": [],
      "name": "getTotalCopyrights",
      "outputs": [
        {
          "internalType": "uint256",
          "name": "",
          "type": "uint256"
        }
      ],
      "stateMutability": "view",
      "type": "function"
    },
    {
      "inputs": [
        {
          "internalType": "string",
          "name": "_title",
          "type": "string"
        },
        {
          "internalType": "string",
          "name": "_description",
          "type": "string"
        },
        {
          "internalType": "string",
          "name": "_fileHash",
          "type": "string"
        },
        {
          "internalType": "string",
          "name": "_ipfsHash",
          "type": "string"
        },
        {
          "internalType": "string",
          "name": "_licenseType",
          "type": "string"
        }
      ],
      "name": "registerCopyright",
      "outputs": [
        {
          "internalType": "uint256",
          "name": "",
          "type": "uint256"
        }
      ],
      "stateMutability": "nonpayable",
      "type": "function"
    },
    {
      "inputs": [
        {
          "internalType": "uint256",
          "name": "_copyrightId",
          "type": "uint256"
        },
        {
          "internalType": "string",
          "name": "_newTitle",
          "type": "string"
        },
        {
          "internalType": "string",
          "name": "_newDescription",
          "type": "string"
        }
      ],
      "name": "updateCopyrightMetadata",
      "outputs": [],
      "stateMutability": "nonpayable",
      "type": "function"
    },
    {
      "inputs": [
        {
          "internalType": "string",
          "name": "_fileHash",
          "type": "string"
        }
      ],
      "name": "verifyCopyright",
      "outputs": [
        {
          "internalType": "uint256",
          "name": "",
          "type": "uint256"
        }
      ],
      "stateMutability": "view",
      "type": "function"
    }
  ],
  "bytecode": "0x6080604052600160005534801561001557600080fd5b50611e96806100256000396000f3fe608060405234801561001057600080fd5b506004361061009e5760003560e01c80637ceffa58116100665780637ceffa581461017f57806392c1cb0e146101b7578063d771a2c0146101e7578063d7f1687014610217578063f7878eb2146102475761009e565b806311ce9eb3146100a357806325dd5b07146100d35780635599e18c146101035780636f4eaff11461011f578063794b91471461014f575b600080fd5b6100bd60048036038101906100b89190611063565b610265565b6040516100ca91906110b2565b60405180910390f35b6100ed60048036038101906100e89190611213565b610296565b6040516100fa91906110b2565b60405180910390f35b61011d6004803603810190610118919061125c565b6102c4565b005b610139600480360381019061013491906112e7565b610452565b60405161014691906114ad565b60405180910390f35b61016960048036038101906101649190611213565b610842565b60405161017691906110b2565b60405180910390f35b610199600480360381019061019491906112e7565b61086a565b6040516101ae99989796959493929190611537565b60405180910390f35b6101d160048036038101906101cc91906115e7565b610b8d565b6040516101de91906110b2565b60405180910390f35b61020160048036038101906101fc91906116ee565b610e5e565b60405161020e91906117ca565b60405180910390f35b610231600480360381019061022c91906116ee565b610ef5565b60405161023e91906110b2565b60405180910390f35b61024f610f41565b60405161025c91906110b2565b60405180910390f35b6003602052816000526040600020818154811061028157600080fd5b90600052602060002001600091509150505481565b6002818051602081018201805184825260208301602085012081835280955050505050506000915090505481565b6001600084815260200190815260200160002060080160009054906101000a900460ff16610327576040517f08c379a000000000000000000000000000000000000000000000000000000000815260040161031e90611838565b60405180910390fd5b3373ffffffffffffffffffffffffffffffffffffffff166001600085815260200190815260200160002060010160009054906101000a900473ffffffffffffffffffffffffffffffffffffffff1673ffffffffffffffffffffffffffffffffffffffff16146103cb576040517f08c379a00000000000000000000000000000000000000000000000000000000081526004016103c2906118a4565b60405180910390fd5b816001600085815260200190815260200160002060020190816103ee9190611ad0565b50806001600085815260200190815260200160002060030190816104129190611ad0565b50827fa9f32b6e4a94680f9560b26ca68999c39ff785f10054401172c12fc6858031298383604051610445929190611ba2565b60405180910390a2505050565b61045a610f57565b6001600083815260200190815260200160002060080160009054906101000a900460ff166104bd576040517f08c379a00000000000000000000000000000000000000000000000000000000081526004016104b490611838565b60405180910390fd5b6001600083815260200190815260200160002060405180610120016040529081600082015481526020016001820160009054906101000a900473ffffffffffffffffffffffffffffffffffffffff1673ffffffffffffffffffffffffffffffffffffffff1673ffffffffffffffffffffffffffffffffffffffff16815260200160028201805461054c906118f3565b80601f0160208091040260200160405190810160405280929190818152602001828054610578906118f3565b80156105c55780601f1061059a576101008083540402835291602001916105c5565b820191906000526020600020905b8154815290600101906020018083116105a857829003601f168201915b505050505081526020016003820180546105de906118f3565b80601f016020809104026020016040519081016040528092919081815260200182805461060a906118f3565b80156106575780601f1061062c57610100808354040283529160200191610657565b820191906000526020600020905b81548152906001019060200180831161063a57829003601f168201915b50505050508152602001600482018054610670906118f3565b80601f016020809104026020016040519081016040528092919081815260200182805461069c906118f3565b80156106e95780601f106106be576101008083540402835291602001916106e9565b820191906000526020600020905b8154815290600101906020018083116106cc57829003601f168201915b50505050508152602001600582018054610702906118f3565b80601f016020809104026020016040519081016040528092919081815260200182805461072e906118f3565b801561077b5780601f106107505761010080835404028352916020019161077b565b820191906000526020600020905b81548152906001019060200180831161075e57829003601f168201915b50505050508152602001600682018054610794906118f3565b80601f01602080910402602001604051908101604052809291908181526020018280546107c0906118f3565b801561080d5780601f106107e25761010080835404028352916020019161080d565b820191906000526020600020905b8154815290600101906020018083116107f057829003601f168201915b50505050508152602001600782015481526020016008820160009054906101000a900460ff1615151515815250509050919050565b60006002826040516108549190611c15565b9081526020016040518091039020549050919050565b60016020528060005260406000206000915090508060000154908060010160009054906101000a900473ffffffffffffffffffffffffffffffffffffffff16908060020180546108b9906118f3565b80601f01602080910402602001604051908101604052809291908181526020018280546108e5906118f3565b80156109325780601f1061090757610100808354040283529160200191610932565b820191906000526020600020905b81548152906001019060200180831161091557829003601f168201915b505050505090806003018054610947906118f3565b80601f0160208091040260200160405190810160405280929190818152602001828054610973906118f3565b80156109c05780601f10610995576101008083540402835291602001916109c0565b820191906000526020600020905b8154815290600101906020018083116109a357829003601f168201915b5050505050908060040180546109d5906118f3565b80601f0160208091040260200160405190810160405280929190818152602001828054610a01906118f3565b8015610a4e5780601f10610a2357610100808354040283529160200191610a4e565b820191906000526020600020905b815481529060010190602001808311610a3157829003601f168201915b505050505090806005018054610a63906118f3565b80601f0160208091040260200160405190810160405280929190818152602001828054610a8f906118f3565b8015610adc5780601f10610ab157610100808354040283529160200191610adc565b820191906000526020600020905b815481529060010190602001808311610abf57829003601f168201915b505050505090806006018054610af1906118f3565b80601f0160208091040260200160405190810160405280929190818152602001828054610b1d906118f3565b8015610b6a5780601f10610b3f57610100808354040283529160200191610b6a565b820191906000526020600020905b815481529060010190602001808311610b4d57829003601f168201915b5050505050908060070154908060080160009054906101000a900460ff16905089565b600080865111610bd2576040517f08c379a0000000000000000000000000000000000000000000000000000000008152600401610bc990611c78565b60405180910390fd5b6000845111610c16576040517f08c379a0000000000000000000000000000000000000000000000000000000008152600401610c0d90611ce4565b60405180910390fd5b6000600285604051610c289190611c15565b90815260200160405180910390205414610c77576040517f08c379a0000000000000000000000000000000000000000000000000000000008152600401610c6e90611d50565b60405180910390fd5b6000806000815480929190610c8b90611d9f565b9190505590506000600160008381526020019081526020016000209050818160000181905550338160010160006101000a81548173ffffffffffffffffffffffffffffffffffffffff021916908373ffffffffffffffffffffffffffffffffffffffff16021790555087816002019081610d059190611ad0565b5086816003019081610d179190611ad0565b5085816004019081610d299190611ad0565b5084816005019081610d3b9190611ad0565b5083816006019081610d4d9190611ad0565b5042816007018190555060018160080160006101000a81548160ff02191690831515021790555081600287604051610d859190611c15565b908152602001604051809103902081905550600360003373ffffffffffffffffffffffffffffffffffffffff1673ffffffffffffffffffffffffffffffffffffffff1681526020019081526020016000208290806001815401808255809150506001900390600052602060002001600090919091909150553373ffffffffffffffffffffffffffffffffffffffff16827fd799e5d468684e5eb238fe712250bbee96e9af4fb89e9157875d6a959d363dd88a8942604051610e4893929190611de7565b60405180910390a3819250505095945050505050565b6060600360008373ffffffffffffffffffffffffffffffffffffffff1673ffffffffffffffffffffffffffffffffffffffff168152602001908152602001600020805480602002602001604051908101604052809291908181526020018280548015610ee957602002820191906000526020600020905b815481526020019060010190808311610ed5575b50505050509050919050565b6000600360008373ffffffffffffffffffffffffffffffffffffffff1673ffffffffffffffffffffffffffffffffffffffff168152602001908152602001600020805490509050919050565b60006001600054610f529190611e2c565b905090565b60405180610120016040528060008152602001600073ffffffffffffffffffffffffffffffffffffffff1681526020016060815260200160608152602001606081526020016060815260200160608152602001600081526020016000151581525090565b6000604051905090565b600080fd5b600080fd5b600073ffffffffffffffffffffffffffffffffffffffff82169050919050565b6000610ffa82610fcf565b9050919050565b61100a81610fef565b811461101557600080fd5b50565b60008135905061102781611001565b92915050565b6000819050919050565b6110408161102d565b811461104b57600080fd5b50565b60008135905061105d81611037565b92915050565b6000806040838503121561107a57611079610fc5565b5b600061108885828601611018565b92505060206110998582860161104e565b9150509250929050565b6110ac8161102d565b82525050565b60006020820190506110c760008301846110a3565b92915050565b600080fd5b600080fd5b6000601f19601f8301169050919050565b7f4e487b7100000000000000000000000000000000000000000000000000000000600052604160045260246000fd5b611120826110d7565b810181811067ffffffffffffffff8211171561113f5761113e6110e8565b5b80604052505050565b6000611152610fbb565b905061115e8282611117565b919050565b600067ffffffffffffffff82111561117e5761117d6110e8565b5b611187826110d7565b9050602081019050919050565b82818337600083830152505050565b60006111b66111b184611163565b611148565b9050828152602081018484840111156111d2576111d16110d2565b5b6111dd848285611194565b509392505050565b600082601f8301126111fa576111f96110cd565b5b813561120a8482602086016111a3565b91505092915050565b60006020828403121561122957611228610fc5565b5b600082013567ffffffffffffffff81111561124757611246610fca565b5b611253848285016111e5565b91505092915050565b60008060006060848603121561127557611274610fc5565b5b60006112838682870161104e565b935050602084013567ffffffffffffffff8111156112a4576112a3610fca565b5b6112b0868287016111e5565b925050604084013567ffffffffffffffff8111156112d1576112d0610fca565b5b6112dd868287016111e5565b9150509250925092565b6000602082840312156112fd576112fc610fc5565b5b600061130b8482850161104e565b91505092915050565b61131d8161102d565b82525050565b61132c81610fef565b82525050565b600081519050919050565b600082825260208201905092915050565b60005b8381101561136c578082015181840152602081019050611351565b60008484015250505050565b600061138382611332565b61138d818561133d565b935061139d81856020860161134e565b6113a6816110d7565b840191505092915050565b60008115159050919050565b6113c6816113b1565b82525050565b6000610120830160008301516113e56000860182611314565b5060208301516113f86020860182611323565b50604083015184820360408601526114108282611378565b9150506060830151848203606086015261142a8282611378565b915050608083015184820360808601526114448282611378565b91505060a083015184820360a086015261145e8282611378565b91505060c083015184820360c08601526114788282611378565b91505060e083015161148d60e0860182611314565b506101008301516114a26101008601826113bd565b508091505092915050565b600060208201905081810360008301526114c781846113cc565b905092915050565b6114d881610fef565b82525050565b600082825260208201905092915050565b60006114fa82611332565b61150481856114de565b935061151481856020860161134e565b61151d816110d7565b840191505092915050565b611531816113b1565b82525050565b60006101208201905061154d600083018c6110a3565b61155a602083018b6114cf565b818103604083015261156c818a6114ef565b9050818103606083015261158081896114ef565b9050818103608083015261159481886114ef565b905081810360a08301526115a881876114ef565b905081810360c08301526115bc81866114ef565b90506115cb60e08301856110a3565b6115d9610100830184611528565b9a9950505050505050505050565b600080600080600060a0868803121561160357611602610fc5565b5b600086013567ffffffffffffffff81111561162157611620610fca565b5b61162d888289016111e5565b955050602086013567ffffffffffffffff81111561164e5761164d610fca565b5b61165a888289016111e5565b945050604086013567ffffffffffffffff81111561167b5761167a610fca565b5b611687888289016111e5565b935050606086013567ffffffffffffffff8111156116a8576116a7610fca565b5b6116b4888289016111e5565b925050608086013567ffffffffffffffff8111156116d5576116d4610fca565b5b6116e1888289016111e5565b9150509295509295909350565b60006020828403121561170457611703610fc5565b5b600061171284828501611018565b91505092915050565b600081519050919050565b600082825260208201905092915050565b6000819050602082019050919050565b60006117538383611314565b60208301905092915050565b6000602082019050919050565b60006117778261171b565b6117818185611726565b935061178c83611737565b8060005b838110156117bd5781516117a48882611747565b97506117af8361175f565b925050600181019050611790565b5085935050505092915050565b600060208201905081810360008301526117e4818461176c565b905092915050565b7f436f70797269676874206e6f7420666f756e6400000000000000000000000000600082015250565b60006118226013836114de565b915061182d826117ec565b602082019050919050565b6000602082019050818103600083015261185181611815565b9050919050565b7f4f6e6c7920636f70797269676874206f776e65722063616e2075706461746500600082015250565b600061188e601f836114de565b915061189982611858565b602082019050919050565b600060208201905081810360008301526118bd81611881565b9050919050565b7f4e487b7100000000000000000000000000000000000000000000000000000000600052602260045260246000fd5b6000600282049050600182168061190b57607f821691505b60208210810361191e5761191d6118c4565b5b50919050565b60008190508160005260206000209050919050565b60006020601f8301049050919050565b600082821b905092915050565b6000600883026119867fffffffffffffffffffffffffffffffffffffffffffffffffffffffffffffffff82611949565b6119908683611949565b95508019841693508086168417925050509392505050565b6000819050919050565b60006119cd6119c86119c38461102d565b6119a8565b61102d565b9050919050565b6000819050919050565b6119e7836119b2565b6119fb6119f3826119d4565b848454611956565b825550505050565b600090565b611a10611a03565b611a1b8184846119de565b505050565b5b81811015611a3f57611a34600082611a08565b600181019050611a21565b5050565b601f821115611a8457611a5581611924565b611a5e84611939565b81016020851015611a6d578190505b611a81611a7985611939565b830182611a20565b50505b505050565b600082821c905092915050565b6000611aa760001984600802611a89565b1980831691505092915050565b6000611ac08383611a96565b9150826002028217905092915050565b611ad982611332565b67ffffffffffffffff811115611af257611af16110e8565b5b611afc82546118f3565b611b07828285611a43565b600060209050601f831160018114611b3a5760008415611b28578287015190505b611b328582611ab4565b865550611b9a565b601f198416611b4886611924565b60005b82811015611b7057848901518255600182019150602085019450602081019050611b4b565b86831015611b8d5784890151611b89601f891682611a96565b8355505b6001600288020188555050505b505050505050565b60006040820190508181036000830152611bbc81856114ef565b90508181036020830152611bd081846114ef565b90509392505050565b600081905092915050565b6000611bef82611332565b611bf98185611bd9565b9350611c0981856020860161134e565b80840191505092915050565b6000611c218284611be4565b915081905092915050565b7f5469746c65207265717569726564000000000000000000000000000000000000600082015250565b6000611c62600e836114de565b9150611c6d82611c2c565b602082019050919050565b60006020820190508181036000830152611c9181611c55565b9050919050565b7f46696c6520686173682072657175697265640000000000000000000000000000600082015250565b6000611cce6012836114de565b9150611cd982611c98565b602082019050919050565b60006020820190508181036000830152611cfd81611cc1565b9050919050565b7f46696c6520616c72656164792072656769737465726564000000000000000000600082015250565b6000611d3a6017836114de565b9150611d4582611d04565b602082019050919050565b60006020820190508181036000830152611d6981611d2d565b9050919050565b7f4e487b7100000000000000000000000000000000000000000000000000000000600052601160045260246000fd5b6000611daa8261102d565b91507fffffffffffffffffffffffffffffffffffffffffffffffffffffffffffffffff8203611ddc57611ddb611d70565b5b600182019050919050565b60006060820190508181036000830152611e0181866114ef565b90508181036020830152611e1581856114ef565b9050611e2460408301846110a3565b949350505050565b6000611e378261102d565b9150611e428361102d565b9250828203905081811115611e5a57611e59611d70565b5b9291505056fea2646970667358221220440f605e92c3d7df5e125ebad83c83cb225947654c4fdff2fa6f73539f2fcfe064736f6c63430008140033",
  "linkReferences": {},
  "deployedLinkReferences": {}
}